:020000040000FA
:100000000C9463000C948B000C948B000C9465038F
:100010000C9465030C9465030C948B000C948B007A
:100020000C948B000C948B000C948B000C948B0024
:100030000C948B000C948B000C948B000C948B0014
:100040000C94C3020C948B000C9433030C940D039A
:100050000C948B000C948B000C948B000C948B00F4
:100060000C948B000C948B0000000008000201002F
:100070000003040700000000000000000000000072
:1000800023002600290000000000240027002A0089
:1000900000000000250028002B00040404040404D0
:1000A0000404020202020202030303030303010227
:1000B00004081020408001020408102001020408F6
:1000C00010202904EF0611241FBECFEFD8E0DEBFB9
:1000D000CDBF22E0AAE6B1E001C01D92A338B2076D
:1000E000E1F711E0A0E0B1E0EEEAF2E102C0059034
:1000F0000D92AA36B107D9F710E0C2E6D0E004C0ED
:100100002197FE010E945207C136D107C9F70E940C
:1001100035050C944A090C940000AF92BF92CF921F
:10012000DF92EF92FF920F931F93CF93DF936C01B7
:100130007B018B01040F151FEB015E01AE18BF0898
:10014000C017D10759F06991D601ED91FC9101904A
:10015000F081E02DC6010995892B79F7C501DF9162
:10016000CF911F910F91FF90EF90DF90CF90BF90B4
:10017000AF900895FC01538D448D252F30E0842FDE
:1001800090E0821B930B541710F0CF9608950197BF
:100190000895FC01918D828D981761F0A28DAE0FAC
:1001A000BF2FB11D5D968C91928D9F5F9F73928F33
:1001B00090E008958FEF9FEF0895FC01918D828D5F
:1001C000981731F0828DE80FF11D858D90E008952C
:1001D0008FEF9FEF0895FC01918D228D892F90E084
:1001E000805C9F4F821B91098F739927089587EB3D
:1001F00091E00E94EB0021E0892B09F420E0822F9E
:10020000089580E090E0892B29F00E94F700811189
:100210000C9400000895FC01A48DA80FB92FB11D06
:10022000A35ABF4F2C91848D90E001968F7399272C
:10023000848FA689B7892C93A089B1898C9183700A
:1002400080648C93938D848D981306C00288F38903
:10025000E02D80818F7D80830895EF92FF920F9330
:100260001F93CF93DF93EC0181E0888F9B8D8C8D62
:1002700098131AC0E889F989808185FF15C09FB756
:10028000F894EE89FF896083E889F9898081837019
:10029000806480839FBF81E090E0DF91CF911F91C8
:1002A0000F91FF90EF900895F62E0B8D10E00F5FE9
:1002B0001F4F0F731127E02E8C8D8E110CC00FB6BF
:1002C00007FCFACFE889F989808185FFF5CFCE0157
:1002D0000E940B01F1CFEB8DEC0FFD2FF11DE35AC6
:1002E000FF4FF0829FB7F8940B8FEA89FB898081DA
:1002F0008062CFCFCF93DF93EC01888D8823B9F054
:10030000AA89BB89E889F9898C9185FD03C0808120
:1003100086FD0DC00FB607FCF7CF8C9185FFF2CF9D
:10032000808185FFEDCFCE010E940B01E9CFDF91E7
:10033000CF9108952091AC013091AD012817390774
:1003400071F49091AA018091AB01981741F0E0916E
:10035000AA01F0E0E659FE4F808190E008958FEF0A
:100360009FEF08950895EF92FF920F931F93CF93FD
:10037000DF93DC015C96ED90FC905D97E114F10455
:1003800079F481E090E013969C938E93129790E01D
:1003900080E0DF91CF911F910F91FF90EF90089532
:1003A0005196ED91FC91529750968C915097982FC1
:1003B00090950FB75E962C915E97122F127021FDCB
:1003C0006095F8942081112319F1282B2083E701EF
:1003D0002197F1F728E0462F50E0308160FF1AC0E6
:1003E000382B3083E7012197F1F7BA0175956795AE
:1003F000215089F7112381F08081892380830FBFE9
:100400005C968D919C910197F1F781E090E0C1CFCE
:100410002923DCCF3923E5CF9081892BEFCF2091A1
:10042000AC013091AD012817390761F48091AB011F
:100430002091AA0190E0805C9F4F821B91098F73ED
:100440009927089590E080E008952091AC013091C3
:10045000AD0128173907B9F49091AA018091AB0139
:10046000981789F0E091AA01F0E0E659FE4F8081EB
:100470002091AA0130E02F5F3F4F2F733327209345
:10048000AA0190E008958FEF9FEF089590E080E03B
:100490000895FB0101900020E9F73197AF01461B59
:1004A000570BDC01ED91FC910280F381E02D099462
:1004B0000F931F93CF93DF93EC01FB014481558190
:1004C00060817181E881F9810280F381E02D0995D5
:1004D0008C016AE271E0CE010E944902800F911FF7
:1004E000DF91CF911F910F9108950F931F93CF9399
:1004F000DF93EC0188819981009759F02A813B8133
:100500002617370730F081E0DF91CF911F910F91CF
:1005100008958B016F5F7F4F0E947D08009759F00F
:10052000998388831B830A832C813D81232B59F770
:10053000FC011082E8CF80E0E7CF0F931F93CF93A9
:10054000DF93EC018B010E947502288139818111B2
:1005500012C02115310519F0C9010E94F407198252
:1005600018821D821C821B821A82CE01DF91CF91DC
:100570001F910F9108951D830C836CE271E0C901F6
:100580000E944309F2CF1F920F920FB60F921124CF
:100590002F933F938F939F93AF93BF938091B3011A
:1005A0009091B401A091B501B091B6013091B20122
:1005B00023E0230F2D3758F50196A11DB11D20937F
:1005C000B2018093B3019093B401A093B501B093AD
:1005D000B6018091AE019091AF01A091B001B091B0
:1005E000B1010196A11DB11D8093AE019093AF01A1
:1005F000A093B001B093B101BF91AF919F918F9142
:100600003F912F910F900FBE0F901F90189526E8E5
:10061000230F0296A11DB11DD2CF1F920F920FB6CC
:100620000F9211242F933F934F935F936F937F9378
:100630008F939F93AF93BF93EF93FF9387EB91E0DB
:100640000E940B01FF91EF91BF91AF919F918F910C
:100650007F916F915F914F913F912F910F900FBEBE
:100660000F901F9018951F920F920FB60F921124A2
:100670002F938F939F93EF93FF93E091C701F09196
:10068000C8018081E091CD01F091CE0182FD1BC0B7
:1006900090818091D0018F5F8F732091D10182175B
:1006A00041F0E091D001F0E0E954FE4F958F809346
:1006B000D001FF91EF919F918F912F910F900FBEDD
:1006C0000F901F9018958081F4CF1F920F920FB654
:1006D0000F9211242F933F934F935F936F937F93C8
:1006E0008F939F93AF93BF93EF93FF93E091AC01F0
:1006F000F091AD01309749F0A685B7858585968D37
:1007000091FF14C09C918923A1F4FF91EF91BF91B7
:10071000AF919F918F917F916F915F914F913F9199
:100720002F910F900FBE0F901F9018959C918923C9
:1007300061F7A389B4899C918589809589238C93DD
:10074000868997890197F1F7608D718DA685B785A8
:10075000558538E020E0CB010197F1F7822F90E03A
:1007600095958795282F4C91452309F020683150A5
:1007700091F7868D81FD20958091AB0190E00196E7
:100780008F7399273091AA01381799F0A091AB0186
:10079000B0E0A659BE4F2C938093AB01828D938D10
:1007A0000197F1F7A389B4898C919589892B8C9352
:1007B000ACCF868D8160868FF1CF90E0FC01E85947
:1007C000FF4F2491FC01E255FF4F3491FC01E656A6
:1007D000FF4FE491EE23C9F0222339F0233001F1D9
:1007E000A8F4213019F1223029F1F0E0EE0FFF1FBB
:1007F000E057FF4FA591B4918FB7F894EC91611138
:1008000026C030953E233C938FBF08952730A9F032
:100810002830C9F0243049F7809180008F7D03C0D3
:10082000809180008F7780938000DFCF84B58F77B1
:1008300084BDDBCF84B58F7DFBCF8091B0008F77F7
:100840008093B000D2CF8091B0008F7DF9CF3E2B46
:10085000DACF0F931F93CF93DF931092BA011092C8
:10086000B90188EE93E0A0E0B0E08093BB019093E3
:10087000BC01A093BD01B093BE012AE031E03093EA
:10088000B8012093B70125EC30E03093C4012093E8
:10089000C30124EC30E03093C6012093C50120EC65
:1008A00030E03093C8012093C70121EC30E0309351
:1008B000CA012093C90122EC30E03093CC0120938F
:1008C000CB0126EC30E03093CE012093CD01109285
:1008D000D0011092D1011092D2011092D301109246
:1008E0006302109262028093640290936502A09367
:1008F0006602B09367028CE191E09093610280936D
:100900006002109277021092760210927902109291
:10091000780210927B0210927A0210927D0210925D
:100920007C0260917E026E7F6D7F60937E02669591
:10093000617081E0682783E00E94DD0341EB50E0B5
:10094000FA0164918DE990E0FC012491222399F051
:1009500030E0220F331FF901EA57FF4FA591B49100
:10096000F901E057FF4F259134912FB7F8943C914E
:10097000632B6C932FBFFA01449140937002FC01EA
:100980008491E82FF0E0EE0FFF1FE057FF4F8591B5
:100990009491909372028093710200EB10E0F80141
:1009A0002491CCE9D0E0FE0184918823C9F090E045
:1009B000880F991FFC01EA57FF4FA591B491FC01E4
:1009C000E057FF4F459154913FB7F8949C91822F87
:1009D000809598239C93FA019081892380833FBF5F
:1009E00080917E0281FD04C061E082E00E94DD030F
:1009F00082E080936C02F801049100936D02FE0185
:100A0000C491EC2FF0E0EE0FFF1FE458FF4F8591EB
:100A1000949190936F0280936E0210925B021092F9
:100A20005A0210925D0210925C0210925F021092C4
:100A30005E0270E060E08AE592E00E949D02109202
:100A400055021092540210925702109256021092C0
:100A500059021092580270E060E084E592E0DF9164
:100A6000CF911F910F910C949D02CF93DF9300D0F3
:100A7000CDB7DEB7789484B5826084BD84B58160DB
:100A800084BD85B5826085BD85B5816085BD809159
:100A90006E00816080936E001092810080918100D1
:100AA00082608093810080918100816080938100C9
:100AB000809180008160809380008091B10084608B
:100AC0008093B1008091B00081608093B0008091EC
:100AD0007A00846080937A0080917A0082608093AB
:100AE0007A0080917A00816080937A0080917A0008
:100AF000806880937A001092C100E091C701F09164
:100B0000C80182E08083E091C301F091C4011082AA
:100B1000E091C501F091C6018FEC80831092CF0166
:100B2000E091CB01F091CC0186E08083E091C90196
:100B3000F091CA01808180618083E091C901F091C8
:100B4000CA01808188608083E091C901F091CA0167
:100B5000808180688083E091C901F091CA01808121
:100B60008F7D808310927B0210927A02109279021C
:100B70001092780210927702109276028DE991E03D
:100B800090937D0280937C0290916C02963108F0E4
:100B900047C02DEB30E030937702209376022BE9AB
:100BA00031E030937902209378022CE231E03093E7
:100BB0007B0220937A022091680084E0983048F00C
:100BC00031E09E3008F430E081E001C0880F3A95B2
:100BD000EAF7822B809368002DE630E0983050F0E1
:100BE0002BE630E09E3030F02CE630E0963110F00D
:100BF00030E020E03093740220937302292F30E01C
:100C0000983008F096C081E001C0880F9A95EAF705
:100C10008093750280917C0290917D020197F1F79B
:100C200080917A0290917B02892B49F1E091AC018D
:100C3000F091AD0182E0E036F80709F1309739F024
:100C4000A389B4899C918589809589238C9380910F
:100C50007E028E7F80937E021092AB011092AA01D9
:100C600080E692E09093AD018093AC01E091730235
:100C7000F0917402808190917502892B80836DE2DE
:100C800071E087EB91E00E9449026AE271E087EB34
:100C900091E00E94490280E0E82E80E0F82E80E694
:100CA00092E00E940F02892B09F450C080E692E086
:100CB0000E942502D82E89831A8200915E0210912B
:100CC0005F020F5F1F4FB8018AE592E00E94750234
:100CD000882399F020915A0230915B0280915E0244
:100CE00090915F02BE016F5F7F4F820F931F0E9442
:100CF000430910935F0200935E028BE3D812CFCFBB
:100D00006AE572E087EB91E00E9458026AE571E0C3
:100D100080E692E00E9449026AE271E080E692E099
:100D20000E94490270E060E08AE592E00E949D0224
:100D3000B6CF9E3040F42850310981E001C0880FC1
:100D40002A95EAF765CF2E503109F7CF87EB91E06E
:100D50000E94EB00892BB9F187EB91E00E94C9005A
:100D6000D82E89831A8200915802109159020F5F80
:100D70001F4FB80184E592E00E947502882399F024
:100D8000209154023091550280915802909159025D
:100D9000BE016F5F7F4F820F931F0E944309109324
:100DA0005902009358028BE3D812D0CF64E572E069
:100DB00080E692E00E94580270E060E084E592E0F4
:100DC0000E949D02C3CFE114F10409F468CF0E9490
:100DD000F700882309F463CF0E94000060CF809160
:100DE000540290915502009711F00E94F4078091EF
:100DF0005A0290915B02009711F00E94F4078CE177
:100E000091E090936102809360028091AC01909197
:100E1000AD018056924071F4E0917302F09174023A
:100E20009081809175028095892380831092AD0115
:100E30001092AC0108952F923F924F925F926F9261
:100E40007F928F929F92AF92BF92CF92DF92EF925A
:100E5000FF920F931F93CF93DF93CDB7DEB7CA1BDB
:100E6000DB0B0FB6F894DEBF0FBECDBF09942A8806
:100E7000398848885F846E847D848C849B84AA84AE
:100E8000B984C884DF80EE80FD800C811B81AA813B
:100E9000B981CE0FD11D0FB6F894DEBF0FBECDBF06
:100EA000ED010895EE0FFF1F0590F491E02D0994D8
:100EB0000F931F93CF93DF938230910510F482E05C
:100EC00090E0E0918102F091820230E020E0B0E019
:100ED000A0E0309799F42115310509F44AC0281B88
:100EE000390B24303105D8F58A819B816115710554
:100EF00089F1FB0193838283FE0111C040815181FE
:100F00000281138148175907E0F04817590799F4EF
:100F1000109761F012960C93129713961C933296C9
:100F2000CF01DF91CF911F910F910895009381021E
:100F300010938202F4CF2115310551F04217530767
:100F400038F0A901DB019A01BD01DF01F801C1CF31
:100F5000EF01F9CF9093820280938102CDCFFE0101
:100F6000E20FF31F81939193225031093983288333
:100F7000D7CF20917F0230918002232B41F4209122
:100F80000201309103013093800220937F0220916F
:100F90000001309101012115310541F42DB73EB713
:100FA0004091040150910501241B350BE0917F0213
:100FB000F0918002E217F307A0F42E1B3F0B2817D5
:100FC000390778F0AC014E5F5F4F2417350748F0C2
:100FD0004E0F5F1F5093800240937F028193919345
:100FE0009FCFF0E0E0E09CCFCF93DF930097E9F054
:100FF000FC01329713821282A0918102B091820289
:10100000ED0130E020E01097A1F420813181820FC2
:10101000931F20917F02309180022817390709F031
:1010200061C0F0938002E0937F02DF91CF91089539
:10103000EA01CE17DF07E8F54A815B819E01411581
:101040005105B1F7E901FB83EA8349915991C40F36
:10105000D51FEC17FD0761F4808191810296840F02
:10106000951FE90199838883828193819B838A8379
:10107000F0E0E0E012968D919C9113970097B9F5FE
:101080002D913C911197CD010296820F931F2091D3
:101090007F02309180022817390739F6309751F5D1
:1010A0001092820210928102B0938002A0937F027C
:1010B000BCCFD383C28340815181840F951FC81751
:1010C000D90761F44E5F5F4F88819981480F591F9E
:1010D000518340838A819B819383828321153105CB
:1010E00009F0B0CFF0938202E09381029ECFFD0120
:1010F000DC01C0CF13821282D7CFB0E0A0E0E3E8DA
:10110000F8E00C941D078C01009751F4CB010E946C
:1011100058078C01C801CDB7DEB7E0E10C94390760
:10112000FC01E60FF71F9C0122503109E217F3077B
:1011300008F49DC0D901CD91DC911197C617D7074E
:1011400098F0C530D10530F3CE0104978617970784
:1011500008F3C61BD70B2297C193D1936D937C9351
:10116000CF010E94F407D6CF5B01AC1ABD0A4C0137
:101170008C0E9D1EA0918102B0918202512C412CB7
:10118000F12CE12C109731F580917F029091800233
:101190008815990509F05CC04616570608F058C036
:1011A0008091000190910101009741F48DB79EB7A5
:1011B0004091040150910501841B950BE817F90734
:1011C00008F055C0F0938002E0937F02F90171832B
:1011D0006083A0CF8D919C91119712966C9012977D
:1011E00013967C901397A815B90559F56C0142E048
:1011F000C40ED11CCA14DB0420F1AC014A195B09EE
:10120000DA011296159780F06282738251834083CF
:10121000D9016D937C93E114F10471F0D701139619
:10122000FC93EE93129776CF22968C0F9D1FF901B7
:1012300091838083F301EFCFF0938202E0938102E8
:1012400069CF4816590608F42C017D01D3019ACFC5
:10125000CB010E9458077C01009749F0AE01B8010C
:101260000E943A09C8010E94F407870153CF10E099
:1012700000E050CFFB01DC0102C001900D92415013
:101280005040D8F70895FB01DC0101900D92002039
:10129000E1F7089510E0C2E6D0E004C0FE010E942C
:1012A00052072196C336D107C9F7F894FFCF000043
:1012B00083028000000000002D018D00BA007A0139
:1012C000EB00C900DD0000000000B3018D00460204
:1012D000B2010F0225029A010D0A0052656164797C
:1012E00020746F20636F6E6E6563742120286465BF
:1012F0006661756C742070617373776F72642069B6
:101300007320313233342900537461747573203281
:08131000303020284F4B29006A
:107E0000112484B714BE81FFF0D085E080938100F7
:107E100082E08093C00088E18093C10086E0809377
:107E2000C20080E18093C4008EE0C9D0259A86E02C
:107E300020E33CEF91E0309385002093840096BBD3
:107E4000B09BFECF1D9AA8958150A9F7CC24DD24C4
:107E500088248394B5E0AB2EA1E19A2EF3E0BF2EE7
:107E6000A2D0813461F49FD0082FAFD0023811F036
:107E7000013811F484E001C083E08DD089C08234E0
:107E800011F484E103C0853419F485E0A6D080C0E4
:107E9000853579F488D0E82EFF2485D0082F10E0AE
:107EA000102F00270E291F29000F111F8ED06801E7
:107EB0006FC0863521F484E090D080E0DECF843638
:107EC00009F040C070D06FD0082F6DD080E0C81688
:107ED00080E7D80618F4F601B7BEE895C0E0D1E017
:107EE00062D089930C17E1F7F0E0CF16F0E7DF06D8
:107EF00018F0F601B7BEE89568D007B600FCFDCFD4
:107F0000A601A0E0B1E02C9130E011968C91119780
:107F100090E0982F8827822B932B1296FA010C0160
:107F200087BEE89511244E5F5F4FF1E0A038BF0790
:107F300051F7F601A7BEE89507B600FCFDCF97BE46
:107F4000E89526C08437B1F42ED02DD0F82E2BD052
:107F50003CD0F601EF2C8F010F5F1F4F84911BD097
:107F6000EA94F801C1F70894C11CD11CFA94CF0C13
:107F7000D11C0EC0853739F428D08EE10CD085E9AC
:107F80000AD08FE07ACF813511F488E018D01DD067
:107F900080E101D065CF982F8091C00085FFFCCF94
:107FA0009093C60008958091C00087FFFCCF809118
:107FB000C00084FD01C0A8958091C6000895E0E648
:107FC000F0E098E1908380830895EDDF803219F02E
:107FD00088E0F5DFFFCF84E1DECF1F93182FE3DFCA
:107FE0001150E9F7F2DF1F91089580E0E8DFEE27F6
:047FF000FF270994CA
:027FFE00040479
:00000001FF
